S01200006275696C642F73746D33322E6D6F7477
S3150800000000000220FD180108B9C30008BDC3000896
S31508000010C1C30008C5C30008C9C300080000000022
S31508000020000000000000000000000000CDC300082A
S31508000030D1C3000800000000D5C30008D9C30008D2
S315080000404119010841190108411901084119010816
S315080000504119010841190108411901084119010806
S3150800006041190108411901084119010841190108F6
S3150800007041190108411901084119010841190108E6
S3150800008041190108411901084119010841190108D6
S3150800009041190108411901084119010841190108C6
S315080000A041190108411901084119010841190108B6
S315080000B041190108411901084119010841190108A6
S315080000C04119010841190108411901084119010896
S315080000D04119010841190108411901084119010886
S315080000E04119010841190108411901084119010876
S315080000F04119010841190108411901084119010866
S315080001004119010841190108411901084119010855
S315080001104119010841190108411901084119010845
S3150800012049D0000841190108411901084119010877
S315080001304119010841190108411901084119010825
S315080001404119010841190108411901084119010815
S315080001504119010841190108411901084119010805
S3150800016041190108411901084119010841190108F5
S3150800017041190108411901084119010841190108E5
S30D080001804119010841190108A3
S30D0800C000684E00000100000073
S3150800C0209096010800000020E8080020E808002093
S3150800C030540A0020FEE700BF4FF0FF30704700BFEC
S3150800C040024B0C221A604FF0FF307047500A00204E
S3150800C050024B0B221A604FF0FF307047500A00203F
S3150800C0604FF400534B600020704700BF0120704713
S3150800C07001207047024B16221A604FF0FF307047B6
S3150800C080500A0020024B1F221A604FF0FF307047FB
S3150800C090500A0020002070474FF0FF30704700BF5D
S3150800C0A00B4898B1002A10DD70B516464D1E0024BF
S3150800C0B001E0B44207D000F00FFD0D2804F1010499
S3150800C0C005F8010FF5D1204670BD0020704700BF66
S3150800C0D0D9CA00080B4A08B513683BB11844EFF3F0
S3150800C0E00881884206D81060184608BD064B1B68AA
S3150800C0F01360F3E705491922012007F07DFD05F0D5
S3150800C1004FFC00BFE808002064090020E08D010804
S3150800C1104FF400534B600020704700BF024B0222C9
S3150800C1201A604FF0FF307047500A0020024B0A226F
S3150800C1301A604FF0FF307047500A0020084868B16F
S3150800C140002A70B5164607DD0C468D1814F8010B43
S3150800C15000F02EFCAC42F9D1304670BD704700BFE6
S3150800C160B1C9000800B583B002F044F9052002F011
S3150800C1707DFB012002F080FB012002F08BFB0120F1
S3150800C18002F096FB102002F071F9072300930020B5
S3150800C1900821A822022302F08FF9012002F09EF955
S3150800C1A0392002F031FB0128FAD1002002F0D8F933
S3150800C1B04FF4805002F0E8F94FF4A05002F0DAF993
S3150800C1C0022002F0BBF902F0C3F90828FBD103B03C
S3150800C1D05DF804FB10B5044602F088FB20460221F0
S3150800C1E0BDE8104002F026BC02F0EEBC02F0CCBC62
S3150800C1F002F0AABC70B5012082B0014602F044FAEA
S3150800C2000220012102F040FA174D0121042002F014
S3150800C2103BFA684601F0D2FE00244FF4C0420123DF
S3150800C22003266946284600928DF804308DF80630B4
S3150800C2308DF805608DF8074001F066FE69464FF4F3
S3150800C24080430A4800938DF804408DF805608DF800
S3150800C250074001F059FE4FF400432846694600930B
S3150800C26001F052FE02B070BD000802400000024014
S3150800C27020B905484FF4005101F0D2BE02484FF4E8
S3150800C280005101F0CBBE00BF0008024020B90548A6
S3150800C2904FF4804101F0C4BE02484FF4804101F0DA
S3150800C2A0BDBE00BF0008024008B54FF480410348F0
S3150800C2B001F0A0FEB0FA80F0400908BD0000024077
S3150800C2C008B54FF40041034801F094FEB0FA80F037
S3150800C2D0400908BD0008024070B52DED028B84B0F8
S3150800C2E008EE100A684602F059F9019B154CDB085E
S3150800C2F007EE903AF8EEE77A002567EE887A17EEA9
S3150800C300900A04F027FB060E46EA012601362B465C
S3150800C3103246256004F006FB012301386060A560FB
S3150800C32023603EB1294622461368DB03FCD501315A
S3150800C3308E42F9D8034B00221A6004B0BDEC028B7A
S3150800C34070BD00BF10E000E0044B00226FF07F4094
S3150800C35001211A6058609A601960704710E000E081
S3150800C360144A93681268D2031FD400B52DED028BC8
S3150800C37085B0BBB1C3F1807308EE103A684602F087
S3150800C3800DF9019BDB0807EE903AB8EEC88AF8EE7D
S3150800C390E77AC8EE277A17EE900A05B0BDEC028B4D
S3150800C3A05DF804FB08EE103AE8E7FFEE007A17EEB0
S3150800C3B0900A704710E000E0704700BFFEE700BF34
S3150800C3C0FEE700BFFEE700BFFEE700BF704700BFFD
S3150800C3D0704700BF704700BF704700BF70B58EB08A
S3150800C3E005A802F0DBF8069A089B9A4200F0348109
S3150800C3F09D4A9E4CC3F35913A2FB03239B09238032
S3150800C4000120014602F064F90420012102F060F9D6
S3150800C4100220012102F068F94FF48030012102F070
S3150800C42063F94020012102F053F98020012102F02E
S3150800C4304FF94FF48070012102F04AF98C480A211D
S3150800C440012201F0FBFD8A480B21012201F0F6FDCD
S3150800C45087480621022201F0F1FD854807210222BC
S3150800C46001F0ECFD82480821022201F0E7FD804830
S3150800C4700921022201F0E2FD7E480621032201F08D
S3150800C480DDFD7C480721032201F0D8FD7948082103
S3150800C490032201F0D3FD77480921032201F0CEFDDE
S3150800C4A075480221032201F0C9FD03210A46724894
S3150800C4B001F0C4FD6E480E21092201F0BFFD6C484B
S3150800C4C00F21092201F0BAFD6B480621092201F065
S3150800C4D0B5FD07210922684801F0B0FD684601F05C
S3150800C4E06DFD002503226946CC23022662488DF895
S3150800C4F0052000938DF804608DF806508DF80750D6
S3150800C50001F002FD69464CF6C0735948009301F0E4
S3150800C510FBFC69464FF470735648009301F0F4FC2F
S3150800C52002A803F02BF92388ADF80850013B02A9AD
S3150800C5304FF080400393ADF80A50ADF8105003F061
S3150800C540D1F802A94D4803F0CDF802A94C4803F0EA
S3150800C550C9F802A94B4803F0C5F802A94A4803F0EE
S3150800C560C1F802A9494803F0BDF802A9484803F0F2
S3150800C570B9F809A803F07EFA012460224FF49673ED
S3150800C58009A94FF08040ADF824200B93ADF8305040
S3150800C590ADF8264003F0ECF909A94FF0804003F006
S3150800C5A02FFA09A9354803F059F909A9334803F0C0
S3150800C5B097F909A9314803F0DBF909A92F4803F0CF
S3150800C5C01FFA09A92E4803F049F909A92C4803F0CE
S3150800C5D087F909A92A4803F0CBF909A9284803F0DD
S3150800C5E00FFA09A9274803F039F909A9254803F0DC
S3150800C5F077F909A9244803F031F909A9224803F073
S3150800C6006FF909A9214803F029F909A9204803F077
S3150800C61025F921461A4803F017FD21464FF08040B8
S3150800C62003F00EF92146154803F00AF92146144885
S3150800C63003F006F92146134803F002F92146124889
S3150800C64003F0FEF82146114803F0FAF8214610488F
S3150800C65003F0F6F80EB070BD034B044C9209A3FB29
S3150800C660023292092280CBE6632D3E056809002036
S3150800C6700004024000080240000002400008004092
S3150800C680000401400040014000180040001C004022
S3150800C69000200040002810B516DB40F2B63188426B
S3150800C6A009DC174B17491B8800FB03F081FB003197
S3150800C6B0C017C0EBA111144803F00EFA1248002166
S3150800C6C0BDE8104003F00ABA104B984214DB0C4B35
S3150800C6D00C4C1B885B4200FB03F084FB0034C0173C
S3150800C6E0C0EBA4140848002103F0F6F921460648D1
S3150800C6F0BDE8104003F0F2B940F2B634F2E700BFE5
S3150800C70068090020D34D6210000401404AFCFFFF6F
S3150800C710002810B516DB40F2B631884209DC174B03
S3150800C72017491B8800FB03F081FB0031C017C0EBDB
S3150800C730A111144803F0D4F912480021BDE81040AD
S3150800C74003F0D0B9104B984214DB0C4B0C4C1B88E9
S3150800C7505B4200FB03F084FB0034C017C0EBA41453
S3150800C7600848002103F0BCF921460648BDE81040F8
S3150800C77003F0B8B940F2B634F2E700BF6809002002
S3150800C780D34D6210000401404AFCFFFF70B5022039
S3150800C79082B0012101F09CFF164C174D012001467D
S3150800C7A001F072FF20460621022201F047FC2046CE
S3150800C7B00721022201F042FC684601F0FFFB03262E
S3150800C7C020466946C0220223012400928DF80430CF
S3150800C7D08DF805608DF8074001F096FB002231467A
S3150800C7E02846134603F056FD2846214603F028F846
S3150800C7F002B070BD000002400004004070B504207D
S3150800C80082B0184C184D012101F062FF0220012167
S3150800C81001F03AFF20460621022201F00FFC2046CD
S3150800C8200721022201F00AFC684601F0C7FB03262D
S3150800C83020466946C0220223012400928DF804305E
S3150800C8408DF805608DF8074001F05EFB0022314641
S3150800C8502846134603F01EFD2846214602F0F0FF3F
S3150800C86002B070BD000402400008004008B5024846
S3150800C87002F09EFF00B208BD0004004008B5024859
S3150800C88002F096FF00B208BD0008004001460148C4
S3150800C89002F08ABF000400400146014802F084BF46
S3150800C8A0000800402DE9F043102087B03A4EDFF823
S3150800C8B0F8803A4C012101F017FF4FF4800001215E
S3150800C8C001F0E2FE30460A21072201F0B7FB3046A6
S3150800C8D00921072201F0B2FB6846002501F06EFB2C
S3150800C8E04FF4007702220323304669468DF8042068
S3150800C8F08DF8053000974FF4806901278DF80650AA
S3150800C9008DF8075001F000FB69463046CDF80090D7
S3150800C9108DF8077001F0F8FA02A802F0DDFA02A90C
S3150800C9204FF4E1320C2340460292ADF81230ADF8CE
S3150800C9300C50ADF80E50ADF81050ADF8145002F08A
S3150800C94069FA204601F05EFCDFF860E0144E1548EF
S3150800C950C4F818904FF0006C4FF4803340222146FB
S3150800C96084E80050A362E26025616561E56125629D
S3150800C9706562E5626563A563A66001F00BFC404647
S3150800C9803A46802102F09CFB4046394602F0C8FA36
S3150800C99007B0BDE8F08300BF000002406C09002024
S3150800C9A0F8090020B8640240001001400410014054
S3150800C9B02DE9F041324E334F82B0804672B6324886
S3150800C9C0002101F031FC304801F072FC04460028D1
S3150800C9D0F9D12D4801F048FC0190019D402D13D155
S3150800C9E0294801F03FFB28482549B760356101F021
S3150800C9F0D1FB2548012101F017FC62B6224801F057
S3150800CA0033FC4028FAD0D9E7204D2B68402B1FD09D
S3150800CA105A1C01992A600131019101991A482B443F
S3150800CA20521A83F808806A6001F01CFB6B68019A49
S3150800CA3015481349326108331D44B56001F0AAFB55
S3150800CA401148012101F0F0FB62B602B0BDE8F081A1
S3150800CA50019BC3F1400EBEF13F0F0EDC0EF107033A
S3150800CA602B44EA1D05F1470013F8011F02F8011FC0
S3150800CA708342F9D1CEF14003CAE723460122C8E72B
S3150800CA806C090020F8090020B8640240F00900206B
S3150800CA9008B572B60B4801F0E7FB0B4A5368C0F1BC
S3150800CAA040009842106009D0D1180133402B5360DA
S3150800CAB004BF00235360087A62B608BD62B6002038
S3150800CAC008BD00BF88640240A809002008B5FFF722
S3150800CAD0DFFF0028FBD108BD00B583B0FFF7D8FFFC
S3150800CAE08DF807000028F9D09DF8070003B05DF817
S3150800CAF004FB00BF38B52B4A2B4B9A420CD2D043C5
S3150800CB00184420F00300294B0430184453F8041B3A
S3150800CB1042F8041B8342F9D1254B264A93420AD28E
S3150800CB20D9430A4422F0030204321A44002143F886
S3150800CB30041B9342FBD1204A204B9A420CD2D04385
S3150800CB40184420F003001E4B0430184453F8041B05
S3150800CB5042F8041B8342F9D11A4B1B4A93420AD264
S3150800CB60D9430A4422F0030204321A44002143F846
S3150800CB70041B9342FBD1154C154D164B164A1A60E9
S3150800CB80AC4204D254F8043B9847AC42FAD3134C4F
S3150800CB90134DAC4205D254F8043B9847AC42FAD33D
S3150800CBA038BD38BD00000020000000200000040841
S3150800CBB0000000200000002000000020E8080020F7
S3150800CBC090960108E8080020540A0020000004088E
S3150800CBD00000040864090020540A0020880100089F
S3150800CBE0880100082DE9F0434FF44070ABB00121ED
S3150800CBF001F07AFD0120014601F076FD01214FF48E
S3150800CC00800001F041FD03A801F0D8F9002603A928
S3150800CC1003270723914803938DF810708DF8136046
S3150800CC2001F072F908A802F0FFFA06244FF48032E0
S3150800CC304FF4004308A809920A93089402F0E0FA10
S3150800CC40012002F0C3FB15A802F0D0FA01254FF027
S3150800CC5000724FF0805315A98148189217931596BC
S3150800CC608DF8596019968DF868708DF8585002F04D
S3150800CC7095FA15A97B48179602F090FA294678483E
S3150800CC8002F074FB2946764802F078FB2946754877
S3150800CC9002F06CFB2946734802F070FB23462A46CD
S3150800CCA06F480A2102F0FEFA23466D480B2102223C
S3150800CCB002F0F8FA3A46234669480C2102F0F2FADD
S3150800CCC023462A4667480A2102F0ECFA23466548B5
S3150800CCD00B21022202F0E6FA3A46234661480C2165
S3150800CCE002F0E0FA0CA801F059FC0F9B0D9ADFED53
S3150800CCF05E5A9FED5E6A9A4218BFAB4007EE903ABD
S3150800CD00F8EE676ADFED5A7A66EEA77AB0EE087A29
S3150800CD10C7EE877AB0EE007AA6EEA57AFCEEE77A39
S3150800CD20BCEEC77ACDED017ABDF804408DED017AE7
S3150800CD30BDF8046007EE906AF8EEE77AA642E6EEDA
S3150800CD40867AFCEEE77ACDED017ABDF8047000D953
S3150800CD50FEE7A742FCD805A802F010FD002505A9A4
S3150800CD60013C44480694ADF814500124ADF8165019
S3150800CD70ADF81C50013E02F0B5FC702310A93D48E1
S3150800CD80ADF840301296ADF84C50ADF8424002F07E
S3150800CD90EFFD21463748DFF8EC90DFF8EC8003F02A
S3150800CDA053F910A802F066FE10A93248ADF84250B1
S3150800CDB01294013F02F052FD10A92E48129702F074
S3150800CDC08FFD22462B484FF4007103F093F9224653
S3150800CDD04FF48061274803F08DF91BA801F012FA79
S3150800CDE04FF480574FF0030C4FF4806E4FF4807267
S3150800CDF04FF480331BA92048CDF87CC04FF48046F9
S3150800CE00CDF884E0249225931B951E9520952695AA
S3150800CE1028952995CDF87090CDF874802297239699
S3150800CE2001F0B8F921460E4802F004FA21460D48E9
S3150800CE3002F000FA2146104801F0F6F921460F489B
S3150800CE4001F0F2F921460E4801F0EEF921460948AB
S3150800CE5002F0F6FC2BB0BDE8F08300BF00080240E4
S3150800CE60002001400021014020F0C037BD370637B9
S3150800CE706F12833A000001401064024028640240A1
S3150800CE804064024008230140380A002010B50121F9
S3150800CE9088B0102001F01CFC0124002338226846C3
S3150800CEA08DF801308DF802308DF800208DF803409A
S3150800CEB001F0F2FE22461021204801F039FA04A8B2
S3150800CEC001F06CFB069B059A9FED1D7A1D489A4258
S3150800CED018BFA34007EE903AF8EE677A67EE877AAE
S3150800CEE0FCEEE77A17EE901A8BB2B3F5006F038063
S3150800CEF022D301235B009BB2B1FBF3F292B2B2F5E7
S3150800CF00006FF7D2013B9CB2028001A802F036FC02
S3150800CF1000234FF6FF7201A90B48ADF80630ADF8AD
S3150800CF200C300292ADF8044002F0DCFB0648012101
S3150800CF3002F086FC08B010BD0024E6E71064024043
S3150800CF406F12833A440A002000100040F8B51649CB
S3150800CF501648174C174F01F033FA174802F028FC09
S3150800CF602289DFF85CE085B20646D4E90001AA1AF0
S3150800CF7092B212184FF000034B41C4E900233E60F9
S3150800CF80BEF8002025810023D4E9000103F0CAFC7D
S3150800CF9003F082FCDFED097A07EE100A67EE277ABE
S3150800CFA0C4ED037AF8BD00BF20800010106402406B
S3150800CFB0F00800204C0A0020001000406F12833A47
S3150800CFC0440A002008B5084802F0F2FB074B084A55
S3150800CFD01B681288C01A80B24FF47A7303FB00F0FC
S3150800CFE090FBF2F008BD00BF001000404C0A00207C
S3150800CFF0440A002008B5FFF7E5FF044B04491A69FF
S3150800D00008609042C8BF186108BD00BFF00800203C
S3150800D010480A002002481021002201F089B900BF01
S3150800D0201064024010B5064C0649204601F0C8F9BE
S3150800D030204610210122BDE8104001F079B900BF51
S3150800D040106402402080001008B5FFF77FFFBDE896
S3150800D0500840FFF7CFBF00BF034A044B04491160DD
S3150800D06006221A60704700BF200900201C0900200C
S3150800D070F88C01082DE9F84F2DED028BFFF726FDF8
S3150800D08000246C4EDFF8D891DFF8D8816A4F254620
S3150800D0903068DFF8D4B103F093FA0B4602466748C6
S3150800D0A005F0D8FAD9F80010D8F80020644805F039
S3150800D0B0D1FA29462246634805F0CCFAFFF7D6FB93
S3150800D0C08246FFF7DBFB514602465F4805F0C2FA87
S3150800D0D05E4805F001FB4FF0010ABBF80020BBF8DB
S3150800D0E002305B4851460AF1010A05F0B3FABAF173
S3150800D0F0040F0BF1040BF0D1D6ED007A96ED007A09
S3150800D10077EEA77AFDEEE77A17EE903A013308EE46
S3150800D110103ABAEEEF8AB4EEC87AF1EE10FA4BD5A9
S3150800D120FFF7B6FC1B385C2856D8DFE800F06F55C9
S3150800D1305555555555555555555555555555555591
S3150800D140555555556D75605555557D7B79555555CC
S3150800D1505555555555555555555555555555555571
S3150800D1605555555555555555555555555555555561
S3150800D1705555555555555555775555558155555503
S3150800D18055557F55542F55556B556900002425462E
S3150800D19040F2B6339C4228DCBC42B8BF3C4628461F
S3150800D1A0FFF778FA2046FFF7B3FAD6ED007AB4EE21
S3150800D1B0E78AF1EE10FAB3DC08221B21254805F0B0
S3150800D1C049FA1B21244805F045FA244B1B68986840
S3150800D1D004F0BAFC5CE7013D40F2B6339D420BDD34
S3150800D1E01D4640F2B6339C42D6DD1C46D7E7643569
S3150800D1F040F2B6339D42F3DCBD42B8BF3D46C7E7B1
S3150800D2000A3DE9E7013CE7E70135E5E7BDEC028BB6
S3150800D210BDE8F84FFFF75ABC0A35DDE7643DDBE7A2
S3150800D2206434D9E70A34D7E70134D5E7643CD3E751
S3150800D2300A3CD1E7FC0800204AFCFFFFFC8D0108E8
S3150800D240108E0108348E01084C8E0108608E010884
S3150800D250748E0108888E0108908E010850040020FB
S3150800D260480A002000090020380A002008B50246AE
S3150800D2701B21054805F0EEF9044B1B689868BDE8C4
S3150800D280084004F061BC00BF988E010850040020D5
S3150800D29008B502461B21054805F0DCF9044B1B6856
S3150800D2A09868BDE8084004F04FBC00BFA08E01088E
S3150800D2B0500400201C4B2DE9F0471E685B6806EBFE
S3150800D2C00308464521D2DFF86C90CA46D9F80070A3
S3150800D2D0002F17DDDAF80440002503E0BD4204F10B
S3150800D2E024040FD0304621461C2205F095FB013553
S3150800D2F00028F3D1236A012B11D0022B0AD1E36946
S3150800D300F2691A6020364645E0D30848BDE8F0477A
S3150800D31005F0E2B92146064805F09CF9F2E7E3690B
S3150800D320F2691A60EEE700BFD08D0108A88E0108E1
S3150800D330C88E01081C0900202DE9F047DFF8049182
S3150800D340FFF768FED9F80030002B13DDD9F8044042
S3150800D3500025204639491C2205F05EFB013518B91F
S3150800D360E269136801331360D9F80030AB4204F15F
S3150800D3702404EEDC324CA068FEF72CFFD9F8003006
S3150800D380D4F800A0002B55DD66680AF12003564440
S3150800D390B34234D800242B4F2546D9F80430234409
S3150800D3A003F1040818F8022C18F8013C18F8030CC5
S3150800D3B018F8041C120402EB036303EB0023194458
S3150800D3C05046FEF715FFD9F80430234403F11C0133
S3150800D3D088450AF1040A08F10408E3D3DB695046D4
S3150800D3E01968FEF705FF3A680135AA4253460AF15D
S3150800D3F0040A15DD2433B34204F12404CDD91248B6
S3150800D40005F06AF9114805F067F9FFF70BFE0120E8
S3150800D410BDE8F087504600210AF1040AFEF7E8FE47
S3150800D420B245F7D30A4805F057F9FFF7FBFD002088
S3150800D430BDE8F08766685644F2E700BFEC8E01083F
S3150800D440D08D01081C090020F88E0108148F0108E8
S3150800D450388F01082DE9F0412F48DFF8D88082B0CF
S3150800D46005F0F8F82D4B1B68986804F06DFBD8F8A2
S3150800D47000302B4A002B126801922EDD019D0026F2
S3150800D480203537460DE0E26955F8043C12689A42A1
S3150800D49034D1D8F80030BB4206F1240605F1200540
S3150800D4A01BDDD8F8044034442146A5F120001C228F
S3150800D4B005F0B2FA013708BB236A012B14D0022BF8
S3150800D4C018482146DFD005F0C5F8D8F80030BB4229
S3150800D4D006F1240605F12005E3DC134805F0FCF8FF
S3150800D4E0002002B0BDE8F081E36955ED017A93EDBD
S3150800D4F0007AB4EE677AF1EE10FACAD00B4805F056
S3150800D500EBF8D8F804100A48314405F0A3F80120CE
S3150800D51002B0BDE8F08100BF548F01085004002016
S3150800D520D08D0108C88E0108648F01086C8F010828
S3150800D530748F01081C0900202DE9F0411B4F1C4877
S3150800D54005F0CAF8D7F80080B8F1000F29DD0026E3
S3150800D5503446434610E0022B01BFEB6915481A68AA
S3150800D560294605F077F80134134805F0B5F844451F
S3150800D57006F1240615D03B68104A11489C42F2DA97
S3150800D5807D68354429462B6A012BE4D1EB69186876
S3150800D59003F016F802460B460A48294605F05AF8DB
S3150800D5A0E1E70948BDE8F04105F096B81C090020F6
S3150800D5B0808F010834900108CC8F01082C9001084F
S3150800D5C02090010840900108D08F0108002800DD4E
S3150800D5D04CE67047002800DD5AE6704770B50378B8
S3150800D5E006460D4633B10146002311F8010F0133F3
S3150800D5F00028FAD12C68A34208DB591C314411F8DB
S3150800D600010D48702C68013B9C42F8DD631C2B60B9
S3150800D61010463255FFF7CCF929680948314405F018
S3150800D62019F82868304405F0C9F9002801DDFFF724
S3150800D6302FFE044B1B68BDE87040986804F084BA56
S3150800D640E88E01085004002038B50D68425D43197C
S3150800D65022B30135ED1A1A4612F8014F1C701478D8
S3150800D6602B440344002CF7D10D460968044621448F
S3150800D6700B4804F0EFFF0B49094804F0EBFF286854
S3150800D680204405F09BF9002801DDFFF701FE064B53
S3150800D6901B689868BDE8384004F056BA38BD00BF24
S3150800D6A0E88E0108DC8D01085004002008B50A48F8
S3150800D6B005F012F8094805F00FF8094805F00CF8C6
S3150800D6C0084805F009F8084805F006F80748BDE8CF
S3150800D6D0084005F001B800BF50900108789001088D
S3150800D6E08C900108AC900108D0900108F0900108D0
S3150800D6F02DE9F04FB3B00023C8488DF878308DF87F
S3150800D700A030C74DDFF830A304F0E6FFFFF7CEFFE1
S3150800D710FFF712FFFFF7DAF90024C2488DF85040E8
S3150800D7208DF82840029404F095FFDAF800309868DE
S3150800D73004F00AFA0194FFF7CFF90D28044624D01D
S3150800D7400A2822D0032800F081811B2800F0A68031
S3150800D7507F2800F09380082800F09080092800F0C0
S3150800D760BD800AA805F02AF92628E4D8A4F12003E2
S3150800D770DBB25E2BDFD822460AA802A9FFF72EFFE6
S3150800D780FFF7AAF90D280446DAD1A74804F0A4FF42
S3150800D7909DF82830202B40F043820AAA002012F870
S3150800D7A0013F202B00F10100F9D0002B00F0648125
S3150800D7B00AAB1A18064602E0002B00F04B8112F855
S3150800D7C0013F202B06F10106F6D1B6EB000800F062
S3150800D7D053810AAB9A1912F8013F202B06F101066C
S3150800D7E0F9D0002B00F039810AAB9A19334612F8A2
S3150800D7F0011F11F0DF0103F10103F8D1B3420F460F
S3150800D80000F02B81D5F800B0BBF1000F20DD0AAB84
S3150800D8101C185B46A3461C4602E02C68BC4217DD72
S3150800D8206B6807EBC70903EB890949465846424620
S3150800D83005F0F2F8631E002800F03881BB4207F1B4
S3150800D8400107EAD1794804F047FF2C68BC42E7DCB7
S3150800D85014A80AA9282205F02BF99DF85030002BA8
S3150800D8603FF45AAF1EA914AC28A8282205F020F9BF
S3150800D8701EA82146282205F01BF94DE7029B002B1E
S3150800D8803FF459AF32AC013B44F8C03D0120FFF7E5
S3150800D890FFFC0AA82146FFF7D7FE4CE7FFF71CF95D
S3150800D8A05B287FF448AFFFF717F9432800F00A8191
S3150800D8B0442800F01581412800F02F81422800F005
S3150800D8C0878133287FF437AFFFF706F97E287FF480
S3150800D8D032AF0AA802A9FFF7B7FE2CE7DDF80890D1
S3150800D8E0B9F1000F3FF427AFD5F80080B8F1000F63
S3150800D8F07FF721AF4A4B5E684FF0000B4E445F46F8
S3150800D9000AA8C9EB06014A4605F086F80446C0B9D6
S3150800D9100137012F00F092809DF80C2033789A4247
S3150800D92009D103AA334612F8014F13F8011F8C4296
S3150800D93000F10100F7D032AB18444FF0000300F8AD
S3150800D940BC3C0BF1010BC34506F12406D8D1012FC7
S3150800D95000F097807FF7EFAE334804F0BDFE2B68E2
S3150800D960002B2FDD00263746B04602E02B68BB4267
S3150800D9701FDD6C68029A344421460AA805F04CF863
S3150800D980013724360028F1D12146294804F062FEE1
S3150800D990284B08F1010883FB0823A3EBE87303EB84
S3150800D9A043039845E2D1204804F096FE2B68BB4213
S3150800D9B0DFDC204B83FB0823A3EBE87303EB43036D
S3150800D9C0984555D1174804F045FE0AA804F042FECA
S3150800D9D0DAF80030986804F0B7F80AA804F0EEFF01
S3150800D9E0029B984209D0C01A002801DDFFF750FCB7
S3150800D9F0DAF80030986804F0A7F89DF80C20002A99
S3150800DA003FF499AE03AE02AC0AA82146FFF7E6FD3D
S3150800DA1016F8012F002AF7D18DE600BF18910108E4
S3150800DA201C09002068910108CC8F0108C0910108E3
S3150800DA30D4910108565555555004002003A831467F
S3150800DA401B2205F035F88DF827407AE7814804F05F
S3150800DA5043FE02E7B6EB00080ED0B8F1020F49D034
S3150800DA60B8F1040F00F08F807B4804F035FEEFE62E
S3150800DA70784804F031FEA5E7FFF718FEFFF75CFDCE
S3150800DA80EBE69DF80C20002A00F0CC8003AE02AC31
S3150800DA900AA82146FFF7A2FD16F8012F002AF7D19A
S3150800DAA021460AA82022FFF799FD44E6D9F8203036
S3150800DAB0012B00F08380022B27D04946674804F0E3
S3150800DAC0C9FDC5E6029B32AA1A4412F8A02C002A00
S3150800DAD03FF431AE013301200293FFF7C7FB2AE674
S3150800DAE0029B002B3FF427AE013B01200293FFF770
S3150800DAF0CFFB20E60AAB18444246594904F08CFF8E
S3150800DB000028B1D1FFF718FDA2E60AAB9819D9F893
S3150800DB101C4003F051FF20609AE6019B012B3FF75A
S3150800DB200AAE5E1CB700BB1932AA02EBC30313F890
S3150800DB30783C002B3FF4FFAD0298002801DDFFF783
S3150800DB40A7FB4848484904F085FD019B14AC23B956
S3150800DB5020460AA9282204F0ABFFB919282204EBAB
S3150800DB60C1010AA804F0A4FF0AA93E4804F072FD00
S3150800DB700AA804F023FFDAF80030029098680196A4
S3150800DB8003F0E2FFD7E50AAB1E183046374942468E
S3150800DB9004F042FF002854D030463549424604F086
S3150800DBA03BFF002845D030464246324904F034FF50
S3150800DBB000287FF459AFFFF77DFB49E60AAB9819B1
S3150800DBC0D9F81C4003F0F4FE02F04EFD20603FE653
S3150800DBD0019B002B3FF4AFAD0298002801DDFFF74B
S3150800DBE057FB019B20491F48013B1E46019314AC75
S3150800DBF004F030FD06EB8601282204EBC1010AA8D1
S3150800DC0004F056FF0AA9174804F024FD0AA804F0F0
S3150800DC10D5FEDAF800300290986803F095FF8AE599
S3150800DC200020C2E502AC21460AA82022FFF7D6FC4E
S3150800DC3081E50446104804F04FFD204633B0BDE8A0
S3150800DC40F08FFFF779FB08B10446F6E7FFF702FC09
S3150800DC500446F2E7CC8F0108AC910108C88E01088A
S3150800DC6074910108E88E0108DC8D01087891010895
S3150800DC7080910108A49101088891010839493A4B15
S3150800DC80D1F88820394842F47002C1F888201A6809
S3150800DC90002142F001021A6099601A6822F0847223
S3150800DCA022F480321A6058601A6882B022F4802200
S3150800DCB01A60D960009101911A6842F480321A609C
S3150800DCC01A4603E0009BB3F5A06F09D0136803F466
S3150800DCD000330193009B01330093019B002BF1D085
S3150800DCE0214B1B6813F4003318BF01230193019BD2
S3150800DCF0012B05D01B4B4FF000629A6002B07047AB
S3150800DD00194B1B491A6C1B4842F080521A640A6860
S3150800DD1042F480420A609A689A609A6842F400421D
S3150800DD209A609A6842F4A0529A6058601A6842F05B
S3150800DD3080721A601A4611680B4B8901FBD50E4A88
S3150800DD4040F2056111609A6822F003029A609A68A7
S3150800DD5042F002029A601A46936803F00C03082BF5
S3150800DD60FAD1C7E700ED00E0003802401030002481
S3150800DD700070004019544007003C02401848836868
S3150800DD8003F00C03042B28D0082B09D0154B144A92
S3150800DD9015499268C2F303128A5CD3400B61704737
S3150800DDA04368416813F4800F436818BF0F4801F0B1
S3150800DDB03F020CBF0B49B0FBF2F1C3F3881308BF4F
S3150800DDC0B1FBF2F101FB03F2054B5B68C3F30143B8
S3150800DDD001335B00B2FBF3F3D9E7044BD7E700BF87
S3150800DDE0003802400024F4000400002000127A00E3
S3150800DDF008B53C4B984224D03B4B98422BD03B4B22
S3150800DE00984232D03A4B984239D03A4B984240D051
S3150800DE10394B984247D0394B98424ED0384B9842A6
S3150800DE2055D0384B984200D008BD4FF48070012178
S3150800DE3000F066FC4FF480700021BDE8084000F051
S3150800DE405FBC0120014600F05BFC01200021BDE813
S3150800DE50084000F055BC0220012100F051FC0220C8
S3150800DE600021BDE8084000F04BBC0420012100F069
S3150800DE7047FC04200021BDE8084000F041BC08200A
S3150800DE80012100F03DFC08200021BDE8084000F013
S3150800DE9037BC1020012100F033FC10200021BDE81A
S3150800DEA0084000F02DBC2020012100F029FC20208C
S3150800DEB00021BDE8084000F023BC4020012100F005
S3150800DEC01FFC40200021BDE8084000F019BC802056
S3150800DED0012100F015FC80200021BDE8084000F073
S3150800DEE00FBC00BF000002400004024000080240C8
S3150800DEF0000C0240001002400014024000180240C4
S3150800DF00001C02400020024000222DE9F04313467F
S3150800DF10D1F800E001274FF0030C04E00133102B81
S3150800DF2002F1020228D007FA03F404EA0E05A54214
S3150800DF30F4D1D0F800800E790CFA02F4E44304EA2E
S3150800DF400808C0F80080D0F8008006FA02F9013EF9
S3150800DF5049EA0808012EC0F800800FD9C568CE79AD
S3150800DF602C40C460C56806FA02F401332C43102B12
S3150800DF70C46002F10202D6D1BDE8F083D0F8089059
S3150800DF8091F805808E7904EA0909C0F80890D0F856
S3150800DF90089008FA02F848EA0908C0F80880D0F894
S3150800DFA0048028EA05054560D0F8048006FA03F5DA
S3150800DFB0ADB245EA08054560D0E700BF00234FF635
S3150800DFC0FF720260037143718371C371704700BFAA
S3150800DFD082B04FF480330193019B0B430193019B5D
S3150800DFE0C361C161019BC361C3690193C36901939D
S3150800DFF002B070470369194214BF01200020704718
S3150800E000006980B2704700BF4369194214BF0120F6
S3150800E01000207047406980B2704700BF018370478F
S3150800E020418370470AB9418370470183704700BF2F
S3150800E030416170474369594041617047CB0800EB1D
S3150800E040830001F0070110B48900046A0F238B408E
S3150800E05024EA03030362036A5DF8044B8A40134308
S3150800E0600362704702683749002310B422F00102A0
S3150800E070212488420260036043608360C3600361B1
S3150800E08044614DD0304B984235D0304B984239D008
S3150800E0902F4B98423DD02F4B984247D02E4B984253
S3150800E0A048D02E4B98421DD02D4B98421ED02D4B52
S3150800E0B0984243D02C4B98421DD02C4B984221D0E5
S3150800E0C02B4B984225D02B4B98422FD02A4B98425F
S3150800E0D030D02A4B984205D0294B984206D05DF895
S3150800E0E0044B7047274A43F8942CF8E74FF03D5203
S3150800E0F043F8AC2CF3E74FF4746243F8202C5DF830
S3150800E100044B70474FF4741243F8382C5DF8044BEF
S3150800E11070474FF0746243F8502C5DF8044B704713
S3150800E120194B5DF8044B3D229A607047174A43F82D
S3150800E130642CD4E7164A43F87C2CD0E73D2243F8F2
S3150800E140082CCCE71060024028600240406002407C
S3150800E150586002407060024088600240A060024039
S3150800E160B8600240106402402864024040640240DD
S3150800E170586402407064024088640240A064024009
S3150800E180B864024000003D20006002403D000020C7
S3150800E190400F00202DE9F04182B08B6A0193CB68CD
S3150800E1A04F698E69CD690C6A4A6AD0F800C0DFF8F3
S3150800E1B050E098460B6848EA030848EA07073E43D2
S3150800E1C035432C43019B0E6B0D69224313434A6B5F
S3150800E1D04C6813438A6B0CEA0E0E134343EA0E038C
S3150800E1E003604269CB6A896822F007023343134306
S3150800E1F0436145608460C16002B0BDE8F08100BF3C
S3150800E2003F801CF00023036043608360C3600361A2
S3150800E21043618361C361036243628362C3620363CA
S3150800E22043638363704700BF036819B923F001038A
S3150800E2300360704743F0010303607047036819B928
S3150800E24023F400430360704743F4004303607047B8
S3150800E250036819B923F020030360704743F02003CD
S3150800E2600360704741607047406880B2704700BFDE
S3150800E270036822B923F4002303600161704743F45D
S3150800E2800023036001617047036819B923F48023EA
S3150800E2900360704743F48023036070470AB9C1607E
S3150800E2A070470161704700BF0068C0F3C0407047FF
S3150800E2B0006800F001007047406900F038007047B8
S3150800E2C00B4B0C4A10B40C4CA04294BF184610468F
S3150800E2D08B004CBF436803685DF8044B21F0F021BE
S3150800E2E021F08211194214BF01200020704700BF97
S3150800E2F000600240006402400F64024010B4094BFB
S3150800E300094C0A4AA04294BF1846104611F0005F0D
S3150800E31021F0F02121F0821114BFC16081605DF8FF
S3150800E320044B7047006002400F64024000640240DC
S3150800E3300B060CD54369AAB143F0800380294361D3
S3150800E3400FD0036801F01E01194301607047802948
S3150800E35007D0002AF5D1036801F01E0123EA01015E
S3150800E3600160704723F0800380294361F3D1704729
S3150800E37070B4104A104E114C21F0F02323F0C31547
S3150800E380B04298BF14468DB1006800F01E0000EA3E
S3150800E390D12289004CBF6068206823F08213184098
S3150800E3A002D0101C18BF012070BC7047406900F0ED
S3150800E3B08002EEE7006002400F64024000640240FB
S3150800E3C010B4094B094C0A4AA04294BF1846104695
S3150800E3D011F0005F21F0F02121F0821114BFC16015
S3150800E3E081605DF8044B7047006002400F6402408C
S3150800E3F0006402400A4B0B481A68002142F00102E9
S3150800E4001A6099601A6822F0847222F480321A60BF
S3150800E41058601A6822F480221A60D960704700BFD3
S3150800E4200038024010300024024B00221A7018707F
S3150800E430704700BF0238024082B000230A4A01939F
S3150800E44002E0B3F5A06F08D0136813F4003F019BF0
S3150800E45003F101030193019BF3D0034B1868C0F342
S3150800E460404002B0704700BF00380240034A1368B4
S3150800E47023F0F80343EAC0001060704700380240F2
S3150800E480014B1860704700BF00004742064B002248
S3150800E49001281A701A7005D0042802D105221A70AC
S3150800E4A0704770471870704770380240014B186003
S3150800E4B0704700BF800E474230B4029C064D40EAC2
S3150800E4C0046001435B08013B41EA821242EA0340C9
S3150800E4D0686030BC704700BF00380240014B1860C6
S3150800E4E0704700BF600047420907034B41EA8010A6
S3150800E4F0C3F88400704700BF00380240014B18601B
S3150800E500704700BF68004742014B1860704700BF5C
S3150800E5104C004742034A936823F0EC6319430843C7
S3150800E5209060704700380240034A936823F07843A6
S3150800E530194308439060704700380240034A9368BD
S3150800E54023F0030318439060704700BF0038024069
S3150800E550024B986800F00C00704700BF0038024074
S3150800E560034A936823F0F00318439060704700BF8E
S3150800E57000380240034A936823F4E0531843906036
S3150800E580704700BF00380240034A936823F460438B
S3150800E59043EAC000906070470038024010B4214C2E
S3150800E5A0A36803F00C03042B1BD0082B1CD01E4BAE
S3150800E5B003601C4A1D499468C4F303140C5DE340C8
S3150800E5C043609468C4F382240C5D23FA04F48460DF
S3150800E5D092685DF8044BC2F342328A5CD340C3604A
S3150800E5E07047134B0360E4E76368616813F4800FB0
S3150800E5F0636818BF0E4C01F03F020CBF0A49B4FB12
S3150800E600F2F1C3F3881308BFB1FBF2F101FB03F281
S3150800E610044B5B68C3F3014301335B00B2FBF3F3BE
S3150800E6200360C6E7003802400024F4001800002002
S3150800E63000127A0000F44073B3F5407F09D1084907
S3150800E6408B6820F0704223F4F81322F440721343C7
S3150800E6508B60034A136FC0F30B00184310677047AB
S3150800E66000380240014B1860704700BF3C0E474215
S3150800E670014B1860704700BF400E4742014B1860B7
S3150800E680704700BF5C014742044A136B19B923EA75
S3150800E6900000106370471843106370470038024043
S3150800E6A0044A536B19B923EA0000506370471843AC
S3150800E6B05063704700380240044A936B19B923EA3D
S3150800E6C00000906370471843906370470038024013
S3150800E6D0044A136C19B923EA0000106470471843FA
S3150800E6E01064704700380240044A536C19B923EA8B
S3150800E6F00000506470471843506470470038024061
S3150800E700044A136919B923EA0000106170471843CF
S3150800E7101061704700380240044A536919B923EA60
S3150800E7200000506170471843506170470038024036
S3150800E730044A936919B923EA00009061704718439F
S3150800E7409061704700380240044A136A19B923EAEF
S3150800E7500000106270471843106270470038024084
S3150800E760044A536A19B923EA0000506270471843ED
S3150800E7705062704700380240044A136D19B923EAFB
S3150800E780000010657047184310657047003802404E
S3150800E790044A536D19B923EA0000506570471843B7
S3150800E7A05065704700380240044A936D19B923EA48
S3150800E7B0000090657047184390657047003802401E
S3150800E7C0044A136E19B923EA000010667047184305
S3150800E7D01066704700380240044A536E19B923EA96
S3150800E7E0000050667047184350667047003802406C
S3150800E7F0044A137819B923EA0000107070471843C1
S3150800E800107070470D3802404309012B0BD0022BBC
S3150800E810094B0CBF1A6F5A6F00F01F0322FA03F058
S3150800E82000F001007047044B1A6800F01F0322FA33
S3150800E83003F000F00100704700380240024A536FA7
S3150800E84043F080735367704700380240034BDB6818
S3150800E850184214BF01200020704700BF003802404C
S3150800E860014B1870704700BF0E380240014BC0B20A
S3150800E87018707047003C0240054A136818B923F41B
S3150800E88080731360704743F480731360704700BF4A
S3150800E890003C0240054A136818B923F40073136054
S3150800E8A0704743F400731360704700BF003C024092
S3150800E8B0054A136818B923F480631360704743F454
S3150800E8C080631360704700BF003C0240024A136829
S3150800E8D043F4006313607047003C0240024A136821
S3150800E8E043F4805313607047003C0240044B1A6996
S3150800E8F0002A03DA0349044A59605A60704700BF80
S3150800E900003C024023016745AB89EFCD024A1369F3
S3150800E91043F0004313617047003C0240044B5A69B8
S3150800E920D20703D50349044A99609A60704700BF25
S3150800E930003C02403B2A19087F6E5D4C024A536927
S3150800E94043F0010353617047003C0240044B1A78B8
S3150800E95002F0F3021A701A7810431870704700BF55
S3150800E960143C0240024B5869C0F34710704700BF79
S3150800E970003C0240014B188880B27047163C0240A2
S3150800E980024B1878AA3818BF01207047153C024078
S3150800E990024B187800F00C00704700BF143C024088
S3150800E9A0044A136919B923EA00001061704718432D
S3150800E9B010617047003C0240034BDB68184214BFE5
S3150800E9C001200020704700BF003C0240014BD86080
S3150800E9D0704700BF003C02400B4BDA68D1030AD4EB
S3150800E9E0DA68D20601D505207047DA6812F0EF0F0B
S3150800E9F003D00620704701207047DB6813F0020F2A
S3150800EA0014BF072008207047003C024000B583B0B9
S3150800EA1008238DF80730FFF7DFFF8DF807009DF80C
S3150800EA200730012BF7D09DF80700C0B203B05DF898
S3150800EA3004FB00BF70B5064659B301292FD0022939
S3150800EA400CBF4FF400744FF44074FFF7DFFF08283B
S3150800EA5024D1144D2B6923F440732B612969214372
S3150800EA6029612B6923F0F8032B612B6943F0020314
S3150800EA701E432E612B6943F480332B61FFF7C6FFD3
S3150800EA802B6923F002032B612B6923F0F8032B6112
S3150800EA9070BD0C46FFF7BAFF0828DAD070BD4FF4F0
S3150800EAA08074F7E7003C024038B50446FFF7AEFF2E
S3150800EAB03CB1012C08D0022C0CBF4FF400744FF463
S3150800EAC04074082804D038BD08284FF48074FAD159
S3150800EAD00B4D2B6923F440732B612B691C432C6166
S3150800EAE02B6943F004032B612B6943F480332B61B4
S3150800EAF0FFF78CFF2B6923F004032B6138BD00BF99
S3150800EB00003C0240F8B5054616461F46FFF77EFF4D
S3150800EB10082800D0F8BD0B4C236923F44073236101
S3150800EB20236943F440732361236943F00103236196
S3150800EB30C5E90067FFF76AFF236923F0010323612C
S3150800EB40F8BD00BF003C024070B505460E46FFF70B
S3150800EB505DFF082800D070BD0A4C236923F4407372
S3150800EB602361236943F400732361236943F0010396
S3150800EB7023612E60FFF74AFF236923F0010323610F
S3150800EB8070BD00BF003C024070B505460E46FFF753
S3150800EB903DFF082800D070BD0A4C236923F4407352
S3150800EBA02361236943F480732361236943F00103D6
S3150800EBB023612E80FFF72AFF236923F001032361CF
S3150800EBC070BD00BF003C024070B505460E46FFF713
S3150800EBD01DFF082800D070BD094C236923F4407333
S3150800EBE0236123692361236943F0010323612E709E
S3150800EBF0FFF70CFF236923F00103236170BD00BFF3
S3150800EC00003C024038B505460C46FFF7FFFE0828CB
S3150800EC1000D038BD054B18881CB9284380B2188027
S3150800EC2038BD80B220EA0500188038BD163C02407F
S3150800EC3010B50446FFF7EAFE082804BF014B1C700E
S3150800EC4010BD00BF153C024070B506460C46154679
S3150800EC50FFF7DCFE082807D1044B197801F00F01ED
S3150800EC60314329432143197070BD00BF143C02404B
S3150800EC70034A137843F002031370FFF7C7BE00BFB9
S3150800EC80143C024040F0BF60024B40F40030D860AC
S3150800EC90704700BF00ED00E0C3785BB903781848F9
S3150800ECA05A09203203F01F03012101FA03F340F841
S3150800ECB022307047134BF0B4D968457882780478C7
S3150800ECC00F4EC943C1F30221C1F10407FFB20F2356
S3150800ECD0BD400B411340E9B20B4304F1604202F513
S3150800ECE061421B01DBB282F800330378012203F08C
S3150800ECF01F015B098A4046F82320F0BC704700BF15
S3150800ED0000E100E000ED00E021F0604121F07F0124
S3150800ED10014B08439860704700ED00E0044A136908
S3150800ED2019B923EA0000106170471843106170474B
S3150800ED3000ED00E0044A136804280CBF43F00403FE
S3150800ED4023F004031360704710E000E008B52B4B6E
S3150800ED50984219D02A4B984220D02A4B984229D05B
S3150800ED60294B984232D0294B98423BD0284B98429F
S3150800ED7000D008BD20200121FFF7F2FC2020002149
S3150800ED80BDE80840FFF7ECBC10200121FFF7E8FCBE
S3150800ED9010200021BDE80840FFF7E2BC4FF4003020
S3150800EDA00121FFF7D1FC4FF400300021BDE80840EF
S3150800EDB0FFF7CABC4FF480200121FFF7C5FC4FF4CA
S3150800EDC080200021BDE80840FFF7BEBC4FF40020B4
S3150800EDD00121FFF7B9FC4FF400200021BDE80840E7
S3150800EDE0FFF7B2BC4FF480100121FFF7ADFC4FF4DA
S3150800EDF080100021BDE80840FFF7A6BC00100140BE
S3150800EE000044004000480040004C004000500040CC
S3150800EE1000140140028A8B88F0B592B2CE880F8919
S3150800EE2004460D4622F440523243A8894989228273
S3150800EE30A2893B4392B20B4322F4B05222F00C0251
S3150800EE409BB21343A381A38A9BB223F44073034363
S3150800EE5085B0A3826846FFF7A1FB1D4B9C4229D0CB
S3150800EE6003F580639C4225D0029AA389A6891BB222
S3150800EE70002B2B6802EB8202B4BF5B009B0002EBFF
S3150800EE808202B2FBF3F0134A36B2A2FB00356D09D3
S3150800EE906423002E05FB13034FEA05150CDB1B0143
S3150800EEA03233A2FB0323C3F343132B439BB22381C1
S3150800EEB005B0F0BD039AD8E7D9003231A2FB01317B
S3150800EEC0C1F3421242EA05039BB2238105B0F0BDA5
S3150800EED0001001401F85EB5100234FF416510C22F8
S3150800EEE0016042818380C38003818381704700BFAC
S3150800EEF030B40A884D888C88038AC9882A432243F5
S3150800EF000A439BB292B223F470631343038230BC64
S3150800EF10704700BF0023038043808380C380704707
S3150800EF20838929B923F400531B041B0C838170477A
S3150800EF309BB243F400538381704700BF038B03F4ED
S3150800EF407F430383038B9BB219430183704700BF3A
S3150800EF50838919B9C3F30E03838170476FEA434364
S3150800EF606FEA53439BB28381704700BF838A29B9EE
S3150800EF7023F400631B041B0C838270479BB243F483
S3150800EF8000638382704700BFC1F308018180704720
S3150800EF908088C0F308007047038A23F00F031B0418
S3150800EFA01B0C0382038A9BB219430182704700BF78
S3150800EFB0838929B923F002031B041B0C838170473C
S3150800EFC09BB243F002038381704700BF838923F411
S3150800EFD000631B041B0C838183899BB219438181BF
S3150800EFE0704700BF038A23F020031B041B0C03820F
S3150800EFF0038A9BB219430182704700BF038A29B965
S3150800F00023F480431B041B0C038270479BB243F412
S3150800F01080430382704700BF83899BB243F0010394
S3150800F02083817047838A29B923F008031B041B0CC4
S3150800F030838270479BB243F008038382704700BF00
S3150800F040038BDBB20383038B9BB243EA0121018363
S3150800F050704700BF838A29B923F020031B041B0CC1
S3150800F060838270479BB243F020038382704700BFB8
S3150800F070838A29B923F010031B041B0C838270476B
S3150800F0809BB243F010038382704700BF838A23F044
S3150800F09004031B041B0C8382838A9BB21943818257
S3150800F0A0704700BF838A29B923F002031B041B0C8F
S3150800F0B0838270479BB243F002038382704700BF86
S3150800F0C0838A9BB21AB923EA0101818270471943E0
S3150800F0D08182704710B401F01F04C1F34211012365
S3150800F0E0012903FA04F311D002290CBF1030143099
S3150800F0F032B902685DF8044B22EA030303607047DD
S3150800F10002685DF8044B1343036070470C30EFE761
S3150800F1100388194214BF012000207047C94389B2E9
S3150800F12001807047C1F3421210B4012301F01F0495
S3150800F130012A03FA04F316D0022A0CBF028A828A2D
S3150800F14092B21340028892B24BB1090A01238B404E
S3150800F150134214BF012000205DF8044B704718467F
S3150800F1605DF8044B7047828992B21340EAE700BF04
S3150800F170090A01238B40DB439BB20380704700BF1B
S3150800F18008B54FF480700121FFF7EAFA4FF4807052
S3150800F1900021BDE80840FFF7E3BA00BFF0B54468B0
S3150800F1A00A6891F804C0D1F80CE00E698D684F79A9
S3150800F1B00D4B24F0407424F48074224342EA0C2256
S3150800F1C0426084684EEA06022A432340134343EA10
S3150800F1D0470383600A7DC36A013AD2B223F47003F7
S3150800F1E043EA0253C362F0BDFDF7FFC000230122C4
S3150800F1F002750360037143718360C36003617047DE
S3150800F20070B490E84400064D8468C168054B686888
S3150800F210324322430A43034013436B6070BC704772
S3150800F22000230140E030FCFF002303604360836055
S3150800F230C3607047836819B923F001038360704778
S3150800F24043F0010383607047436823F4400323F4C3
S3150800F250007319434160704741628262704700BF7C
S3150800F260436823F01F03194341607047054A5368F2
S3150800F27018B923F400035360704743F4000353603E
S3150800F280704700BF00230140054A536818B923F4A4
S3150800F29080035360704743F480035360704700BF90
S3150800F2A000230140092970B41CD9A1F10A0404EB12
S3150800F2B04404C5680726A640A34025EA0604234356
S3150800F2C0062AC3601AD90C2A25D90D3AC46A02EB54
S3150800F2D082021F23934024EA030391401943C16223
S3150800F2E070BC704701EB410605690724B440B3407A
S3150800F2F025EA04042343062A0361E4D8013A446B49
S3150800F30002EB82021F23934024EA03039140194328
S3150800F310416370BC7047073A046B02EB82021F23F5
S3150800F320934024EA030391401943016370BC704774
S3150800F330836843F080438360704700BF8068C0F3EA
S3150800F34080507047836819B923F4806383607047D7
S3150800F35043F4806383607047836819B923F0020316
S3150800F3608360704743F0020383607047436801393E
S3150800F37023F4604343EA413141607047436819B951
S3150800F38023F400634360704743F4006343607047A7
S3150800F390C06C80B2704700BF014B1868704700BF49
S3150800F3A008230140836819B923F480738360704782
S3150800F3B043F4807383607047836819B923F4007334
S3150800F3C08360704743F4007383607047054A536847
S3150800F3D018B923F400535360704743F4005353603D
S3150800F3E0704700BF00230140092970B41AD801EB01
S3150800F3F0410605690724B440B34025EA04042343BB
S3150800F4000361836B0232C3F30154121BD2B202EBBF
S3150800F41082021F24944023EA04039140194381631E
S3150800F42070BC7047A1F10A0404EB4404C5680726BA
S3150800F430A640A34025EA06042343C360E1E700BFCC
S3150800F440836B013923F4401343EA01518163704702
S3150800F45082B0002301930190019B19440191019BFD
S3150800F4601A6002B0704700BF836823F470231943FB
S3150800F47081607047836823F440131943816070479D
S3150800F480836843F480038360704700BF8068C0F3D5
S3150800F49080507047436819B923F480634360704706
S3150800F4A043F4806343607047436819B923F4805373
S3150800F4B04360704743F480534360704782B000232B
S3150800F4C001930190019B283319440191019B186807
S3150800F4D080B202B0704700BFC9B201238B4022B97F
S3150800F4E0426822EA03034360704742681343436055
S3150800F4F0704700BF0368194214BF012000207047F7
S3150800F500C9430160704700BF4268006810EA1120CD
S3150800F51006D0C9B201238B40134214BF0120002034
S3150800F520704700BF6FEA11210160704708B5604B4C
S3150800F530984235D0B0F1804F3CD05E4B984243D0CC
S3150800F5405D4B98424AD05D4B984251D05C4B9842ED
S3150800F55058D05C4B98425FD05B4B984266D05B4B69
S3150800F56098426DD05A4B984276D05A4B98427FD0E3
S3150800F570594B984200F08880584B984200F08E808C
S3150800F580574B984200D008BD4FF480700121FFF711
S3150800F590DBF84FF480700021BDE80840FFF7D4B8C7
S3150800F5A001200146FFF7DCF801200021BDE80840EC
S3150800F5B0FFF7D6B801200146FFF7C6F8012000215B
S3150800F5C0BDE80840FFF7C0B802200121FFF7BCF8E4
S3150800F5D002200021BDE80840FFF7B6B80420012143
S3150800F5E0FFF7B2F804200021BDE80840FFF7ACB8E1
S3150800F5F008200121FFF7A8F808200021BDE80840E7
S3150800F600FFF7A2B810200121FFF79EF8102000216D
S3150800F610BDE80840FFF798B820200121FFF794F8C5
S3150800F62020200021BDE80840FFF78EB802200121FE
S3150800F630FFF796F802200021BDE80840FFF790B8CA
S3150800F6404FF480300121FFF78BF84FF4803000210A
S3150800F650BDE80840FFF784B84FF400300121FFF7F2
S3150800F6607FF84FF400300021BDE80840FFF778B86E
S3150800F6704FF480200121FFF773F84FF48020002112
S3150800F680BDE80840FFF76CB840200121FFF75CF899
S3150800F69040200021BDE80840FFF756B88020012128
S3150800F6A0FFF752F880200021BDE80840FFF74CB864
S3150800F6B0000001400004004000080040000C004023
S3150800F6C000100040001400400004014000400140C2
S3150800F6D0004401400048014000180040001C00405A
S3150800F6E000200040224A038890429BB212D002F5BD
S3150800F6F0806290420ED0B0F1804F0BD0A2F58032D6
S3150800F700904207D002F58062904203D002F58062EB
S3150800F710904203D14A8823F070031343154A904256
S3150800F7201ED002F5806290421AD00A8970B423F47A
S3150800F73040730F4C4E680D889BB21343A04203805A
S3150800F740C662058506D00C4B984203D001238382F6
S3150800F75070BC70478B7A03860123838270BC70471E
S3150800F76003800B884A68C262038501238382704737
S3150800F77000000140001000400004014000234FF043
S3150800F780FF3242600380038143808372704700BF63
S3150800F79001858282704700BF038823F070031B042B
S3150800F7A01B0C19430180704741627047C16270475C
S3150800F7B0406A7047008D80B2704700BF038829B938
S3150800F7C023F002031B041B0C038070479BB243F013
S3150800F7D002030380704700BF038829B923F0040396
S3150800F7E01B041B0C038070479BB243F00403038081
S3150800F7F0704700BF038829B923F080031B041B0C3C
S3150800F800038070479BB243F080030380704700BFB4
S3150800F810038823F008031B041B0C038003889BB290
S3150800F82019430180704700BF038823F440731B0403
S3150800F8301B0C038003889BB219430180704700BFE5
S3150800F840038829B923F001031B041B0C03807047A6
S3150800F8509BB243F001030380704700BFF0B5048CE8
S3150800F860B1F802C08B890F881B4E24F001042404CA
S3150800F870240C0484058CB0F804E0048B25F00205FA
S3150800F88024F073022D042D0C4CEA030312042B43B7
S3150800F890120CB0429BB21FFA8EF442EA070208D055
S3150800F8A00E4DA84205D0896884800283416303848B
S3150800F8B0F0BDCE89B1F812E00D8A8F8823F00803CF
S3150800F8C024F4407433434EEA050523F004032C431D
S3150800F8D03B43A4B2E7E700BF000001400004014033
S3150800F8E0F0B5058C0C88B1F80CC0B1F802E01E4ED4
S3150800F8F025F010052D042D0C0584028C8788058BB0
S3150800F90022F020031B0425F4E6421B0C120443EAEA
S3150800F9100C13120C43EA0E1342EA0422B0429BB2BD
S3150800F920BDB294B208D0114A904205D08A68858043
S3150800F930048382630384F0BD23F08002CB89B1F887
S3150800F94010E08F884E8A92B242EA031225F4406587
S3150800F9504FF6BF73134045EA8E0543EA071345EA97
S3150800F96086059BB2ADB2E1E7000001400004014004
S3150800F970F0B5058CB1F80CC0B1F802E00C881E4F42
S3150800F98025F480752D042D0C0584028C8688858BBC
S3150800F99022F400731B0425F073021B0C43EA0C23A4
S3150800F9A0120443EA0E23120CB8429BB2B5B244EADB
S3150800F9B0020408D0114A904205D08A68858084835B
S3150800F9C0C2630384F0BD23F40062CB89B1F810E06A
S3150800F9D08F884E8A92B242EA032225F440554FF6A2
S3150800F9E0FF33134045EA0E1543EA072345EA061591
S3150800F9F09BB2ADB2E1E700BF000001400004014040
S3150800FA00028CB1F802C022F480521204120C2DE9BD
S3150800FA10F041B1F80C80B1F800E00284058C8788C3
S3150800FA20828B124E25F4005422F4E6432404240C57
S3150800FA301B0444EA08341B0C44EA0C3443EA0E233C
S3150800FA40B042A4B2BAB29BB209D0094DA84206D0B8
S3150800FA5089688280838301640484BDE8F0810D8A05
S3150800FA6022F4804242EA851292B2F1E70000014090
S3150800FA7000040140002303804380838083608381E0
S3150800FA80C38103824382704710B4048C0123A4B255
S3150800FA908B4024EA030321F00804038418307CB160
S3150800FAA00439C1F34E0148F6FF730C5823400B5036
S3150800FAB012020B585DF8044B92B21A430A5070476B
S3150800FAC049084FF68F7344582340435043585DF80E
S3150800FAD0044B1A434250704741637047816370472D
S3150800FAE0C163704701647047038B23F070031B04DE
S3150800FAF01B0C194301837047038B23F4E0431B0453
S3150800FB001B0C43EA012189B201837047838B23F0DA
S3150800FB1070031B041B0C194381837047838B23F4E2
S3150800FB20E0431B041B0C43EA012189B28183704719
S3150800FB30038B23F008031B041B0C1943018370472E
S3150800FB40038B23F400631B041B0C43EA012189B2CF
S3150800FB5001837047838B23F008031B041B0C19438E
S3150800FB6081837047838B23F400631B041B0C43EAD1
S3150800FB70012189B281837047038B23F004031B0498
S3150800FB801B0C194301837047038B23F480631B0402
S3150800FB901B0C43EA012189B201837047838B23F04A
S3150800FBA004031B041B0C194381837047838B23F4BE
S3150800FBB080631B041B0C43EA012189B281837047C9
S3150800FBC0038B23F080031B041B0C19430183704726
S3150800FBD0038BC3F30E0343EA012189B201837047FD
S3150800FBE0838B23F080031B041B0C19438183704706
S3150800FBF0838BC3F30E0343EA012189B281837047DD
S3150800FC00038C23F002031B041B0C19430184704761
S3150800FC10038C23F008031B041B0C1943018470474B
S3150800FC20038C23F020031B041B0C43EA011189B241
S3150800FC3001847047038C23F080031B041B0C43EAE2
S3150800FC40011189B201847047038C23F400731B04E5
S3150800FC501B0C43EA012189B201847047038C23F403
S3150800FC6000631B041B0C43EA012189B20184704717
S3150800FC70038C23F400531B041B0C43EA013189B29D
S3150800FC800184704710B4048C0123A4B28B4024EA83
S3150800FC9003030384038C5DF8044B8A4013439BB229
S3150800FCA00384704710B4048C0423A4B28B4024EA5E
S3150800FCB003030384038C5DF8044B8A4013439BB209
S3150800FCC0038470470B88F0B5002B32D0042B57D02D
S3150800FCD0082B00F08380028C4F88B1F804E00E8967
S3150800FCE0CD8822F480521204120C0284848B028C72
S3150800FCF024F4407122F4005309055B04090D5B0CDA
S3150800FD0041EA0E2143EA073341EA06319BB243F43E
S3150800FD10805389B281830384828B22F44062120461
S3150800FD20120C8283838B9BB243EA05239BB283839F
S3150800FD30F0BD028C4E888D880B89CC8822F0010292
S3150800FD401204120C0284028B018C92B222F0F30286
S3150800FD5021F00A0142EA0313090446F001029BB2A4
S3150800FD60090C2B43114303830184038B23F00C03F3
S3150800FD701B041B0C0383038B9BB21C430483F0BD3B
S3150800FD80058C4F888E88B1F808E0CC8825F01001DC
S3150800FD900904090C0184028B018C22F440731B05AB
S3150800FDA01B0D8AB243EA0E3322F0A0029BB242EA46
S3150800FDB0071243EA062392B29BB242F0100203836B
S3150800FDC00284038B23F440631B041B0C0383038BFD
S3150800FDD09BB243EA04239BB20383F0BD068C4F888B
S3150800FDE08D880A89CC8826F480710904090C018457
S3150800FDF0818B038C89B29BB221F0F30123F4206333
S3150800FE0041EA021243EA072392B29BB243F4807393
S3150800FE102A4382830384838B23F00C031B041B0C65
S3150800FE208383838B9BB21C438483F0BD002301220A
S3150800FE30828003804380C38003817047B1F802C083
S3150800FE400B88F0B5B1F804E0BCF1000F0CBF022432
S3150800FE500024BEF1010F0CBF02250125002B4BD053
S3150800FE60038C0E89C98823F010031B041B0C03841A
S3150800FE70028B078C22F440731B051B0DBAB243EAAA
S3150800FE80063322F0A0029BB242EA0C1243EA0E2382
S3150800FE9092B29BB242F0100203830284038B23F4CE
S3150800FEA040631B041B0C0383038B9BB243EA0123A9
S3150800FEB09BB20383038C23F001031B041B0C0384EE
S3150800FEC0038B028C9BB223F0F30392B243EA061625
S3150800FED022F00A0343F00103B6B21C432E430683FD
S3150800FEE00484038B23F00C031B041B0C0383038B72
S3150800FEF09BB219430183F0BD038C0F89CE8823F08A
S3150800FF0001031B041B0C0384018B038C89B221F0AB
S3150800FF10F30123F00A0341EA07111B044CF001021E
S3150800FF2089B21B0C134341EA0E0EA0F818E00384AD
S3150800FF30038B23F00C031B041B0C0383038B9BB25C
S3150800FF4033430383038C23F010031B041B0C038425
S3150800FF50028B018C22F440731B051B0D8AB243EAFF
S3150800FF60073322F0A0029BB242F0100243EA0525AD
S3150800FF7042EA041405830484038B23F440631B04B8
S3150800FF801B0C0383038B9BB243EA0626B6B2068391
S3150800FF90F0BD00BF406B7047806B7047C06B704701
S3150800FFA0006C7047038B23F00C031B041B0C0383A4
S3150800FFB0038B9BB219430183704700BF038B23F45D
S3150800FFC040631B041B0C0383038B9BB243EA01218A
S3150800FFD089B20183704700BF838B23F00C031B048F
S3150800FFE01B0C8383838B9BB219438183704700BFA5
S3150800FFF0838B23F440631B041B0C8383838B9BB284
S3150801000043EA012189B28183704700BFF0B50B88A5
S31508010010B1F802E08F88CE880D894C898A894EEA23
S3150801002003033B4333432B43234313439BB2A0F8B8
S315080100304430F0BD0023038043808380C38003815D
S3150801004043818381704700BFB0F8443021B9C3F3B7
S315080100500E03A0F8443070476FEA43436FEA5343EF
S315080100609BB2A0F844307047838829B923F004036A
S315080100701B041B0C838070479BB243F004038380E7
S31508010080704700BF838829B923F001031B041B0CA1
S31508010090838070479BB243F001038380704700BF9A
S315080100A083899BB21AB923EA0101818170471943F1
S315080100B08181704781827047038A194214BF0120E2
S315080100C000207047C94389B201827047038A828931
S315080100D011EA030092B203D0114214BF0120002095
S315080100E0704700BFC94389B2018270470A43A0F825
S315080100F04820704783899BB21AB923EA0101818195
S315080101007047194381817047838829B923F0080309
S315080101101B041B0C838070479BB243F00803838042
S31508010120704700BF038923F007031B041B0C0381D7
S31508010130704700BF038923F070031B041B0C194386
S31508010140018103899BB243F007030381704700BF0E
S31508010150602930B4048C24D024F001042404240C2E
S315080101600484048B058CA4B224F0F304ADB244F0E4
S31508010170010425F00A0544EA031345F001049BB27C
S31508010180224303830284038923F070031B041B0C97
S315080101900B43038103899BB243F00703038130BCF8
S315080101A0704724F010042404240C0484048B058C61
S315080101B024F440742405ADB2240D25F0A00544F4B9
S315080101C0807445F0100544EA033345EA02129BB2EE
S315080101D092B203830284D6E710B4048942EA032360
S315080101E0E4B223439BB21943018103895DF8044BA9
S315080101F023F077031B041B0C43F077030381704735
S3150801020010B4048942EA0323E4B223439BB2194397
S31508010210018103895DF8044B9BB243F48043038152
S31508010220704700BF038923F070031B041B0C194395
S3150801023001817047838823F070031B041B0C83809C
S3150801024083889BB219438180704700BF038923F0D5
S3150801025007031B041B0C038103899BB21943018104
S31508010260704700BF038923F080031B041B0C03811D
S3150801027003899BB219430181704700BF10B40489F1
S31508010280E4B221430A4342EA032399B201815DF8A4
S31508010290044B704770B40689048B058C24F44074AA
S315080102A024F00304ADB225F0220526F0070624043E
S315080102B02A433604240C360C44F4807442EA0313A8
S315080102C0314344F001049AB201810483028470BC6B
S315080102D0704700BF838829B923F080031B041B0CD0
S315080102E0838070479BB243F080038380704700BFC9
S315080102F0A0F85010704700BF81F0004102E000BF2E
S3150801030083F0004330B54FEA41044FEA430594EAC6
S31508010310050F08BF90EA020F1FBF54EA000C55EA01
S31508010320020C7FEA645C7FEA655C00F0E2804FEAD2
S315080103305454D4EB5555B8BF6D420CDD2C4480EAB4
S31508010340020281EA030382EA000083EA010180EAE4
S31508010350020281EA0303362D88BF30BD11F0004F32
S315080103604FEA01314FF4801C4CEA113102D0404268
S3150801037061EB410113F0004F4FEA03334CEA1333A3
S3150801038002D0524263EB430394EA050F00F0A780BB
S31508010390A4F10104D5F1200E0DDB02FA0EFC22FAB6
S315080103A005F2801841F1000103FA0EF2801843FAAA
S315080103B005F359410EE0A5F120050EF1200E012A9B
S315080103C003FA0EFC28BF4CF0020C43FA05F3C018D9
S315080103D051EBE37101F0004507D54FF0000EDCF152
S315080103E0000C7EEB00006EEB0101B1F5801F1BD3FB
S315080103F0B1F5001F0CD349085FEA30004FEA3C0CFF
S3150801040004F101044FEA445212F5800F80F09A80F4
S31508010410BCF1004F08BF5FEA500C50F1000041EBF8
S31508010420045141EA050130BD5FEA4C0C404141EBFC
S31508010430010111F4801FA4F10104E9D191F0000F23
S3150801044004BF01460020B1FA81F308BF2033A3F1A6
S315080104500B03B3F120020CDA0C3208DD02F1140C9D
S31508010460C2F10C0201FA0CF021FA02F10CE002F1D8
S315080104701402D8BFC2F1200C01FA02F120FA0CFCD1
S31508010480DCBF41EA0C019040E41AA2BF01EB04511A
S31508010490294330BD6FEA04041F3C1CDA0C340EDC18
S315080104A004F11404C4F1200220FA04F001FA02F35B
S315080104B040EA030021FA04F345EA030130BDC4F119
S315080104C00C04C4F1200220FA02F001FA04F340EA0E
S315080104D00300294630BD21FA04F0294630BD94F0BF
S315080104E0000F83F4801306BF81F480110134013DA6
S315080104F04EE77FEA645C18BF7FEA655C29D094EA17
S31508010500050F08BF90EA020F05D054EA000C04BF94
S315080105101946104630BD91EA030F1EBF002100207F
S3150801052030BD5FEA545C05D14000494128BF41F01E
S31508010530004130BD14F580043CBF01F5801130BD82
S3150801054001F0004545F0FE4141F470014FF000000D
S3150801055030BD7FEA645C1ABF194610467FEA655CBE
S315080105601CBF0B46024650EA013406BF52EA033560
S3150801057091EA030F41F4002130BD00BF90F0000F4E
S3150801058004BF0021704730B54FF4806404F132048A
S315080105904FF000054FF0000150E700BF90F0000F43
S315080105A004BF0021704730B54FF4806404F132046A
S315080105B010F0004548BF40424FF000013EE700BF3A
S315080105C042004FEAE2014FEA31014FEA02701FBFCA
S315080105D012F07F4393F07F4F81F06051704792F09C
S315080105E0000F14BF93F07F4F704730B54FF4607416
S315080105F001F0004521F0004120E700BF50EA010261
S3150801060008BF704730B54FF000050AE050EA01020D
S3150801061008BF704730B511F0004502D5404261EB7D
S3150801062041014FF4806404F132045FEA915C3FF4BE
S31508010630DCAE4FF003025FEADC0C18BF03325FEA57
S31508010640DC0C18BF033202EBDC02C2F1200300FA0C
S3150801065003FC20FA02F001FA03FE40EA0E0021FA31
S3150801066002F11444C1E600BF4FEA4102B2F1E04388
S3150801067024BFB3F5001CDCF1FE5C0DD901F0004C7A
S315080106804FEAC0024CEA5070B2F1004F40EB8300CA
S3150801069008BF20F00100704711F0804F21D113F1F6
S315080106A03872BCBF01F00040704741F480114FEA2F
S315080106B05252C2F11802C2F1200C10FA0CF320FAB8
S315080106C002F018BF40F001004FEAC1234FEAD323D5
S315080106D003FA0CFC40EA0C0023FA02F34FEA43033F
S315080106E0CCE77FEA625307D150EA01331EBF4FF0C8
S315080106F0FE4040F44000704701F0004040F0FE40E3
S3150801070040F40000704700BF80F0004002E000BFDF
S3150801071081F0004142001FBF5FEA410392EA030FDD
S315080107207FEA226C7FEA236C6AD04FEA1262D2EB27
S315080107301363C1BFD218414048404140B8BF5B422C
S31508010740192B88BF704710F0004F40F4000020F0C5
S315080107507F4018BF404211F0004F41F4000121F0DB
S315080107607F4118BF494292EA030F3FD0A2F1010225
S3150801077041FA03FC10EB0C00C3F1200301FA03F163
S3150801078000F0004302D5494260EB4000B0F5000F86
S3150801079013D3B0F1807F06D340084FEA310102F145
S315080107A00102FE2A51D2B1F1004F40EBC25008BFF7
S315080107B020F0010040EA03007047490040EB0000C1
S315080107C010F4000FA2F10102EDD1B0FA80FCACF1F0
S315080107D0080CB2EB0C0200FA0CF0AABF00EBC250EF
S315080107E052421843BCBFD0401843704792F0000FDD
S315080107F081F4000106BF80F400000132013BB5E730
S315080108004FEA41037FEA226C18BF7FEA236C21D0A5
S3150801081092EA030F04D092F0000F08BF084670470A
S3150801082090EA010F1CBF0020704712F07F4F04D1D8
S31508010830400028BF40F00040704712F100723CBFEB
S3150801084000F50000704700F0004343F0FE4040F415
S31508010850000070477FEA226216BF08467FEA2363D3
S315080108600146420206BF5FEA412390EA010F40F4BE
S31508010870800070474FF0000304E000BF10F000430A
S3150801088048BF40425FEA000C08BF704743F09643F1
S3150801089001464FF000001CE050EA010208BF70470C
S315080108A04FF000030AE000BF50EA010208BF704793
S315080108B011F0004302D5404261EB41015FEA010CA8
S315080108C002BF84460146002043F0B64308BFA3F1A0
S315080108D08053A3F50003BCFA8CF2083AA3EBC25382
S315080108E010DB01FA02FC634400FA02FCC2F12002A1
S315080108F0BCF1004F20FA02F243EB020008BF20F0D8
S315080109000100704702F1200201FA02FCC2F120023D
S3150801091050EA4C0021FA02F243EB020008BF20EA32
S31508010920DC70704753B94AB9002908BF00281CBFB3
S315080109304FF0FF314FF0FF3000F062B882B0EC465D
S315080109402DE9005000F044F8DDF804E002B00CBCD3
S31508010950704700BFD0B5FFF733FE00220E4B06469F
S315080109600F4600F04FF800F05FFA0446FFF706FE5F
S3150801097000220A4B00F046F802460B463046394635
S31508010980FFF7BEFC00F050FA2346002242EA0002B5
S3150801099010461946D0BD00BF0000F03D0000F041E9
S315080109A02DE9F041069C154606460F46984600F085
S315080109B05BFA05FB01F300FB0838A5FB0023B21A15
S315080109C0434467EB0303C4E90023BDE8F08100BF94
S315080109D02DE9F041069C904606460F461D4600F055
S315080109E091FB00FB05F5A0FB082308FB0155B21A8C
S315080109F02B4467EB0303C4E90023BDE8F08100BF7C
S31508010A00704700BF70B54FF0FF0C4CF4E06C1CEA60
S31508010A1011541DBF1CEA135594EA0C0F95EA0C0FE5
S31508010A2000F0DEF82C4481EA030621EA4C5123EA58
S31508010A304C5350EA013518BF52EA033541F4801187
S31508010A4043F4801338D0A0FB02CE4FF00005E1FB3A
S31508010A5002E506F00042E0FB03E54FF00006E1FB84
S31508010A6003569CF0000F18BF4EF0010EA4F1FF04C7
S31508010A70B6F5007F64F5407404D25FEA4E0E6D4107
S31508010A8046EB060642EAC62141EA55514FEAC52018
S31508010A9040EA5E504FEACE2EB4F1FD0C88BFBCF594
S31508010AA0E06F1ED8BEF1004F08BF5FEA500E50F145
S31508010AB0000041EB045170BD06F0004646EA01010B
S31508010AC040EA020081EA0301B4EB5C04C2BFD4EB3D
S31508010AD00C0541EA045170BD41F480114FF0000E36
S31508010AE0013C00F3AB8014F1360FDEBF002001F0A4
S31508010AF0004170BDC4F10004203C35DA0C341BDC1E
S31508010B0004F11404C4F1200500FA05F320FA04F0EF
S31508010B1001FA05F240EA020001F0004221F0004123
S31508010B2010EBD37021FA04F642EB06015EEA430E96
S31508010B3008BF20EAD37070BDC4F10C04C4F12005C6
S31508010B4000FA04F320FA05F001FA04F240EA020079
S31508010B5001F0004110EBD37041F100015EEA430E4A
S31508010B6008BF20EAD37070BDC4F1200500FA05F26A
S31508010B704EEA020E20FA04F301FA05F243EA0203E9
S31508010B8021FA04F001F0004121FA04F220EA0200F8
S31508010B9000EBD3705EEA430E08BF20EAD37070BD3E
S31508010BA094F0000F0FD101F00046400041EB01011E
S31508010BB011F4801F08BF013CF7D041EA060195F000
S31508010BC0000F18BF704703F00046520043EB0303BA
S31508010BD013F4801F08BF013DF7D043EA06037047A7
S31508010BE094EA0C0F0CEA135518BF95EA0C0F0CD0B2
S31508010BF050EA410618BF52EA4306D1D181EA0301F8
S31508010C0001F000414FF0000070BD50EA410606BFF1
S31508010C101046194652EA430619D094EA0C0F02D136
S31508010C2050EA013613D195EA0C0F05D152EA03367B
S31508010C301CBF104619460AD181EA030101F0004199
S31508010C4041F0FE4141F470014FF0000070BD41F0E2
S31508010C50FE4141F4780170BD70B54FF0FF0C4CF4BC
S31508010C60E06C1CEA11541DBF1CEA135594EA0C0FDB
S31508010C7095EA0C0F00F0A7F8A4EB050481EA030E28
S31508010C8052EA03354FEA013100F088804FEA03330F
S31508010C904FF0805545EA131343EA12634FEA0222DD
S31508010CA045EA111545EA10654FEA00260EF000419E
S31508010CB09D4208BF964244F1FD0404F5407402D2F0
S31508010CC05B084FEA3202B61A65EB03055B084FEA81
S31508010CD032024FF480104FF4002CB6EB020E75EB7E
S31508010CE0030E22BFB61A754640EA0C005B084FEAA6
S31508010CF03202B6EB020E75EB030E22BFB61A754623
S31508010D0040EA5C005B084FEA3202B6EB020E75EB6D
S31508010D10030E22BFB61A754640EA9C005B084FEAE5
S31508010D203202B6EB020E75EB030E22BFB61A7546F2
S31508010D3040EADC0055EA060E18D04FEA051545EAE1
S31508010D4016754FEA06164FEAC30343EA52734FEA8A
S31508010D50C2025FEA1C1CC0D111F4801F0BD141EA03
S31508010D6000014FF000004FF0004CB6E711F4801F68
S31508010D7004BF01430020B4F1FD0C88BFBCF5E06F48
S31508010D803FF6AFAEB5EB030C04BFB6EB020C5FEA58
S31508010D90500C50F1000041EB045170BD0EF0004EAD
S31508010DA04EEA113114EB5C04C2BFD4EB0C0541EADF
S31508010DB0045170BD41F480114FF0000E013C90E6DC
S31508010DC045EA060E8DE60CEA135594EA0C0F08BFA0
S31508010DD095EA0C0F3FF43BAF94EA0C0F0AD150EA9F
S31508010DE001347FF434AF95EA0C0F7FF425AF104632
S31508010DF019462CE795EA0C0F06D152EA03353FF45A
S31508010E00FDAE1046194622E750EA410618BF52EAD6
S31508010E1043067FF4C5AE50EA41047FF40DAF52EAAA
S31508010E2043057FF4EBAE12E74A0011D212F5001220
S31508010E3011D20DD56FF47873B3EB62520ED44FEA23
S31508010E40C12343F0004343EA505323FA02F07047A3
S31508010E504FF00000704750EA013002D14FF0FF30E1
S31508010E6070474FF00000704700292DE9F043C0F2A2
S31508010E70A6800026002BC0F29C80884694469E4692
S31508010E80154604460F46002B3DD18A4259D9B2FA76
S31508010E9082F33BB1C3F120029F4020FA02F29D4042
S31508010EA017439C40290C220CB7FBF1FEA8B201FBA3
S31508010EB01E7742EA074700FB0EF3BB420AD97F19A0
S31508010EC00EF1FF3280F00581BB4240F20281AEF19C
S31508010ED0020E2F44FF1AA4B2B7FBF1F301FB1377F5
S31508010EE044EA074700FB03F0B84208D97F1903F122
S31508010EF0FF3280F0F080B84240F2ED80023B43EACF
S31508010F000E43002203E08B420FD900221346341CFC
S31508010F1018BF012460424FF0000565EB45015840B2
S31508010F20514000196941BDE8F083B3FA83F2002AFA
S31508010F3040F086808B4202D3844500F2DB80012390
S31508010F40E5E712B90123B3FBF2F5B5FA85F00028F6
S31508010F503BD1781B4FEA154E1FFA85FC0122B0FBDF
S31508010F60FEF8210C0EFB180741EA07470CFB08F3AC
S31508010F70BB4207D97F1908F1FF3102D2BB4200F201
S31508010F80BD808846FF1AA4B2B7FBFEF30EFB1377A2
S31508010F9044EA07470CFB03FCBC4507D97F1903F153
S31508010FA0FF3102D2BC4500F2A7800B4643EA08434B
S31508010FB0ADE752426FEA060663EB43035DE740423B
S31508010FC061EB41014FF0FF3654E7C0F1200224FAE4
S31508010FD002F107FA00F385404FEA154ED740194347
S31508010FE0B7FBFEF20B0C0EFB12771FFA85FC43EAE0
S31508010FF007430CFB02F79F4204FA00F407D95B1971
S3150801100002F1FF3074D29F4272D9023A2B44DF1B98
S3150801101089B2B7FBFEF80EFB187341EA03430CFBD2
S3150801102008F79F4208D95B1908F1FF315CD29F4244
S315080110305AD9A8F102082B44D81B48EA02428EE77E
S31508011040C2F120032CFA03F10EFA02FE20FA03F785
S3150801105041EA0E0E08FA02F028FA03F14FEA1E4594
S315080110603843B1FBF5F8030C05FB18111FFA8EF787
S3150801107043EA014107FB08F38B420CFA02FC09D942
S3150801108011EB0E0108F1FF3930D28B422ED9A8F1A6
S3150801109002087144C91A80B2B1FBF5F305FB1311B5
S315080110A040EA014107FB03F78F4208D911EB0E010C
S315080110B003F1FF3016D28F4214D9023B714443EA39
S315080110C00843C91BA3FB0C89494509D305D000224E
S315080110D01DE79646FEE6134611E794404445F6D2C7
S315080110E0013BF4E70346EAE78846A5E7C846D1E7A0
S315080110F002468CE713460AE7023B57E7A8F10208BE
S315080111002F443FE72DE9F041002B44D18A42154689
S3150801111004464FD9B2FA82F70E464FB1C7F12003FA
S31508011120B94020FA03F602FA07F50E4300FA07F466
S315080111304FEA154E230CB6FBFEF0AFB20EFB10615B
S3150801114043EA014307FB00F1994209D95B1900F10A
S31508011150FF3280F0EC80994240F2E98002382B4454
S315080111605A1AA4B2B2FBFEF30EFB132244EA024258
S3150801117007FB03F7974208D9521903F1FF3180F0AB
S31508011180D880974240F2D580023B43EA00400026C8
S315080111903146BDE8F0818B4247D8B3FA83F6002E73
S315080111A048D18B4202D3824200F2CD8001203146DA
S315080111B0BDE8F08112B90125B5FBF2F5B5FA85F856
S315080111C0B8F1000F77D14A1B4FEA154EAFB2012687
S315080111D0B2FBFEF0230C0EFB102143EA014107FB8B
S315080111E000F38B4207D9491900F1FF3202D28B422B
S315080111F000F2BA801046C91AA4B2B1FBFEF30EFB7F
S31508011200131144EA014407FB03F7A74208D96419F5
S3150801121003F1FF3280F08F80A74240F28C80023BB7
S3150801122043EA00403146BDE8F081002630463146A2
S31508011230BDE8F081C6F1200422FA04F5B3402B4338
S3150801124020FA04FC01FA06F721FA04F54FEA134ECF
S315080112504CEA0707B5FBFEF8390C0EFB18551FFAC1
S3150801126083FC41EA05450CFB08F1A94202FA06F29C
S3150801127004D9ED1808F1FF3467D3A0466D1ABFB239
S31508011280B5FBFEF40EFB145547EA05410CFB04FCBD
S315080112908C4504D9C91804F1FF355CD32C4644EAB8
S315080112A00844CCEB0101A4FB0223994248D344D05C
S315080112B0204600266CE7C8F1200401FA08F305FA6E
S315080112C008F520FA04F7E1404FEA154E1F43B1FB32
S315080112D0FEF63A0C0EFB16111FFA85FC42EA01438B
S315080112E00CFB06F29A4200FA08F407D95B1906F1D3
S315080112F0FF3137D29A4235D9023E2B449B1ABFB2E7
S31508011300B3FBFEF00EFB103347EA03430CFB00F177
S31508011310994207D95B1900F1FF3221D299421FD9A7
S3150801132002382B445A1A40EA0646674650E71046E1
S3150801133016E70B4629E7134672E7B0409042B7D243
S31508011340601E002624E7304622E7A94295D9A8F16E
S3150801135002081D4492E78C45A0D9023C19449EE730
S315080113601046DFE70E46C9E70238294443E700BFBE
S31508011370844641EA000313F003036DD1403A41D391
S3150801138051F8043B40F8043B51F8043B40F8043B50
